{
  "contractName": "TasksContract",
  "abi": [
    {
      "inputs": [],
      "stateMutability": "nonpayable",
      "type": "constructor"
    },
    {
      "anonymous": false,
      "inputs": [
        {
          "indexed": false,
          "internalType": "uint256",
          "name": "id",
          "type": "uint256"
        },
        {
          "indexed": false,
          "internalType": "string",
          "name": "title",
          "type": "string"
        },
        {
          "indexed": false,
          "internalType": "string",
          "name": "description",
          "type": "string"
        },
        {
          "indexed": false,
          "internalType": "bool",
          "name": "done",
          "type": "bool"
        },
        {
          "indexed": false,
          "internalType": "uint256",
          "name": "createdAt",
          "type": "uint256"
        }
      ],
      "name": "TaskCreated",
      "type": "event"
    },
    {
      "inputs": [
        {
          "internalType": "uint256",
          "name": "",
          "type": "uint256"
        }
      ],
      "name": "Tasks",
      "outputs": [
        {
          "internalType": "uint256",
          "name": "id",
          "type": "uint256"
        },
        {
          "internalType": "string",
          "name": "title",
          "type": "string"
        },
        {
          "internalType": "string",
          "name": "description",
          "type": "string"
        },
        {
          "internalType": "bool",
          "name": "done",
          "type": "bool"
        },
        {
          "internalType": "uint256",
          "name": "createdAt",
          "type": "uint256"
        }
      ],
      "stateMutability": "view",
      "type": "function",
      "constant": true
    },
    {
      "inputs": [],
      "name": "taskCounter",
      "outputs": [
        {
          "internalType": "uint256",
          "name": "",
          "type": "uint256"
        }
      ],
      "stateMutability": "view",
      "type": "function",
      "constant": true
    },
    {
      "inputs": [
        {
          "internalType": "uint256",
          "name": "",
          "type": "uint256"
        }
      ],
      "name": "taskList",
      "outputs": [
        {
          "internalType": "uint256",
          "name": "",
          "type": "uint256"
        }
      ],
      "stateMutability": "view",
      "type": "function",
      "constant": true
    },
    {
      "inputs": [],
      "name": "getTasks",
      "outputs": [
        {
          "components": [
            {
              "internalType": "uint256",
              "name": "id",
              "type": "uint256"
            },
            {
              "internalType": "string",
              "name": "title",
              "type": "string"
            },
            {
              "internalType": "string",
              "name": "description",
              "type": "string"
            },
            {
              "internalType": "bool",
              "name": "done",
              "type": "bool"
            },
            {
              "internalType": "uint256",
              "name": "createdAt",
              "type": "uint256"
            }
          ],
          "internalType": "struct TasksContract.Task[]",
          "name": "",
          "type": "tuple[]"
        }
      ],
      "stateMutability": "view",
      "type": "function",
      "constant": true
    },
    {
      "inputs": [
        {
          "internalType": "string",
          "name": "_title",
          "type": "string"
        },
        {
          "internalType": "string",
          "name": "_description",
          "type": "string"
        }
      ],
      "name": "createTask",
      "outputs": [],
      "stateMutability": "nonpayable",
      "type": "function"
    },
    {
      "inputs": [
        {
          "internalType": "uint256",
          "name": "_id",
          "type": "uint256"
        }
      ],
      "name": "deleteTask",
      "outputs": [],
      "stateMutability": "nonpayable",
      "type": "function"
    },
    {
      "inputs": [
        {
          "internalType": "uint256",
          "name": "_id",
          "type": "uint256"
        }
      ],
      "name": "modifyTask",
      "outputs": [],
      "stateMutability": "nonpayable",
      "type": "function"
    }
  ],
  "bytecode": "0x6080604052600080553480156200001557600080fd5b50620000926040518060400160405280600a81526020017f54657374205469746c65000000000000000000000000000000000000000000008152506040518060400160405280601081526020017f54657374206465736372697074696f6e000000000000000000000000000000008152506200009860201b60201c565b62000487565b600080815480929190620000ac90620003ca565b91905055506040518060a00160405280600054815260200183815260200182815260200160001515815260200142815250600160008054815260200190815260200160002060008201518160000155602082015181600101908051906020019062000119929190620001ae565b50604082015181600201908051906020019062000138929190620001ae565b5060608201518160030160006101000a81548160ff021916908315150217905550608082015181600401559050507f6549102bed7d1bb5ec529ee14e2ca60ffc1f47f66d4cc6ca713220613cc64c256000548383600042604051620001a2959493929190620002c1565b60405180910390a15050565b828054620001bc9062000394565b90600052602060002090601f016020900481019282620001e057600085556200022c565b82601f10620001fb57805160ff19168380011785556200022c565b828001600101855582156200022c579182015b828111156200022b5782518255916020019190600101906200020e565b5b5090506200023b91906200023f565b5090565b5b808211156200025a57600081600090555060010162000240565b5090565b620002698162000348565b82525050565b60006200027c826200032c565b62000288818562000337565b93506200029a8185602086016200035e565b620002a58162000476565b840191505092915050565b620002bb8162000354565b82525050565b600060a082019050620002d86000830188620002b0565b8181036020830152620002ec81876200026f565b905081810360408301526200030281866200026f565b90506200031360608301856200025e565b620003226080830184620002b0565b9695505050505050565b600081519050919050565b600082825260208201905092915050565b60008115159050919050565b6000819050919050565b60005b838110156200037e57808201518184015260208101905062000361565b838111156200038e576000848401525b50505050565b60006002820490506001821680620003ad57607f821691505b60208210811415620003c457620003c362000447565b5b50919050565b6000620003d78262000354565b91507fffffffffffffffffffffffffffffffffffffffffffffffffffffffffffffffff8214156200040d576200040c62000418565b5b600182019050919050565b7f4e487b7100000000000000000000000000000000000000000000000000000000600052601160045260246000fd5b7f4e487b7100000000000000000000000000000000000000000000000000000000600052602260045260246000fd5b6000601f19601f8301169050919050565b61103f80620004976000396000f3fe608060405234801561001057600080fd5b506004361061007d5760003560e01c80634c1f77e51161005b5780634c1f77e5146100ec578063560f3192146101085780635867173014610124578063f4b2a46e146101425761007d565b806304a87e3814610082578063292a4585146100a05780632a1c52a5146100bc575b600080fd5b61008a610176565b6040516100979190610cb3565b60405180910390f35b6100ba60048036038101906100b59190610a5a565b610373565b005b6100d660048036038101906100d19190610ad2565b610481565b6040516100e39190610cd5565b60405180910390f35b61010660048036038101906101019190610ad2565b6104a5565b005b610122600480360381019061011d9190610ad2565b61070b565b005b61012c610768565b6040516101399190610cd5565b60405180910390f35b61015c60048036038101906101579190610ad2565b61076e565b60405161016d959493929190610cf0565b60405180910390f35b6060600060028054905067ffffffffffffffff81111561019957610198610f9e565b5b6040519080825280602002602001820160405280156101d257816020015b6101bf6108c1565b8152602001906001900390816101b75790505b50905060005b60028054905081101561036b576040518060a00160405280836002848154811061020557610204610f6f565b5b90600052602060002001548151811061022157610220610f6f565b5b6020026020010151600001518152602001836002848154811061024757610246610f6f565b5b90600052602060002001548151811061026357610262610f6f565b5b6020026020010151602001518152602001836002848154811061028957610288610f6f565b5b9060005260206000200154815181106102a5576102a4610f6f565b5b602002602001015160400151815260200183600284815481106102cb576102ca610f6f565b5b9060005260206000200154815181106102e7576102e6610f6f565b5b60200260200101516060015115158152602001836002848154811061030f5761030e610f6f565b5b90600052602060002001548151811061032b5761032a610f6f565b5b60200260200101516080015181525082828151811061034d5761034c610f6f565b5b6020026020010181905250808061036390610ec8565b9150506101d8565b508091505090565b60008081548092919061038590610ec8565b91905055506040518060a0016040528060005481526020018381526020018281526020016000151581526020014281525060016000805481526020019081526020016000206000820151816000015560208201518160010190805190602001906103f09291906108f2565b50604082015181600201908051906020019061040d9291906108f2565b5060608201518160030160006101000a81548160ff021916908315150217905550608082015181600401559050507f6549102bed7d1bb5ec529ee14e2ca60ffc1f47f66d4cc6ca713220613cc64c256000548383600042604051610475959493929190610cf0565b60405180910390a15050565b6002818154811061049157600080fd5b906000526020600020016000915090505481565b6000600160008381526020019081526020016000206040518060a0016040529081600082015481526020016001820180546104df90610e65565b80601f016020809104026020016040519081016040528092919081815260200182805461050b90610e65565b80156105585780601f1061052d57610100808354040283529160200191610558565b820191906000526020600020905b81548152906001019060200180831161053b57829003601f168201915b5050505050815260200160028201805461057190610e65565b80601f016020809104026020016040519081016040528092919081815260200182805461059d90610e65565b80156105ea5780601f106105bf576101008083540402835291602001916105ea565b820191906000526020600020905b8154815290600101906020018083116105cd57829003601f168201915b505050505081526020016003820160009054906101000a900460ff16151515158152602001600482015481525050905080606001511581606001901515908115158152505080600160008481526020019081526020016000206000820151816000015560208201518160010190805190602001906106699291906108f2565b5060408201518160020190805190602001906106869291906108f2565b5060608201518160030160006101000a81548160ff021916908315150217905550608082015181600401559050507f6549102bed7d1bb5ec529ee14e2ca60ffc1f47f66d4cc6ca713220613cc64c25816000015182602001518360400151846060015185608001516040516106ff959493929190610cf0565b60405180910390a15050565b600160008281526020019081526020016000206000808201600090556001820160006107379190610978565b6002820160006107479190610978565b6003820160006101000a81549060ff02191690556004820160009055505050565b60005481565b600160205280600052604060002060009150905080600001549080600101805461079790610e65565b80601f01602080910402602001604051908101604052809291908181526020018280546107c390610e65565b80156108105780601f106107e557610100808354040283529160200191610810565b820191906000526020600020905b8154815290600101906020018083116107f357829003601f168201915b50505050509080600201805461082590610e65565b80601f016020809104026020016040519081016040528092919081815260200182805461085190610e65565b801561089e5780601f106108735761010080835404028352916020019161089e565b820191906000526020600020905b81548152906001019060200180831161088157829003601f168201915b5050505050908060030160009054906101000a900460ff16908060040154905085565b6040518060a00160405280600081526020016060815260200160608152602001600015158152602001600081525090565b8280546108fe90610e65565b90600052602060002090601f0160209004810192826109205760008555610967565b82601f1061093957805160ff1916838001178555610967565b82800160010185558215610967579182015b8281111561096657825182559160200191906001019061094b565b5b50905061097491906109b8565b5090565b50805461098490610e65565b6000825580601f1061099657506109b5565b601f0160209004906000526020600020908101906109b491906109b8565b5b50565b5b808211156109d15760008160009055506001016109b9565b5090565b60006109e86109e384610d76565b610d51565b905082815260208101848484011115610a0457610a03610fd2565b5b610a0f848285610e23565b509392505050565b600082601f830112610a2c57610a2b610fcd565b5b8135610a3c8482602086016109d5565b91505092915050565b600081359050610a5481610ff2565b92915050565b60008060408385031215610a7157610a70610fdc565b5b600083013567ffffffffffffffff811115610a8f57610a8e610fd7565b5b610a9b85828601610a17565b925050602083013567ffffffffffffffff811115610abc57610abb610fd7565b5b610ac885828601610a17565b9150509250929050565b600060208284031215610ae857610ae7610fdc565b5b6000610af684828501610a45565b91505092915050565b6000610b0b8383610c18565b905092915050565b6000610b1e82610db7565b610b288185610dda565b935083602082028501610b3a85610da7565b8060005b85811015610b765784840389528151610b578582610aff565b9450610b6283610dcd565b925060208a01995050600181019050610b3e565b50829750879550505050505092915050565b610b9181610e0d565b82525050565b610ba081610e0d565b82525050565b6000610bb182610dc2565b610bbb8185610deb565b9350610bcb818560208601610e32565b610bd481610fe1565b840191505092915050565b6000610bea82610dc2565b610bf48185610dfc565b9350610c04818560208601610e32565b610c0d81610fe1565b840191505092915050565b600060a083016000830151610c306000860182610c95565b5060208301518482036020860152610c488282610ba6565b91505060408301518482036040860152610c628282610ba6565b9150506060830151610c776060860182610b88565b506080830151610c8a6080860182610c95565b508091505092915050565b610c9e81610e19565b82525050565b610cad81610e19565b82525050565b60006020820190508181036000830152610ccd8184610b13565b905092915050565b6000602082019050610cea6000830184610ca4565b92915050565b600060a082019050610d056000830188610ca4565b8181036020830152610d178187610bdf565b90508181036040830152610d2b8186610bdf565b9050610d3a6060830185610b97565b610d476080830184610ca4565b9695505050505050565b6000610d5b610d6c565b9050610d678282610e97565b919050565b6000604051905090565b600067ffffffffffffffff821115610d9157610d90610f9e565b5b610d9a82610fe1565b9050602081019050919050565b6000819050602082019050919050565b600081519050919050565b600081519050919050565b6000602082019050919050565b600082825260208201905092915050565b600082825260208201905092915050565b600082825260208201905092915050565b60008115159050919050565b6000819050919050565b82818337600083830152505050565b60005b83811015610e50578082015181840152602081019050610e35565b83811115610e5f576000848401525b50505050565b60006002820490506001821680610e7d57607f821691505b60208210811415610e9157610e90610f40565b5b50919050565b610ea082610fe1565b810181811067ffffffffffffffff82111715610ebf57610ebe610f9e565b5b80604052505050565b6000610ed382610e19565b91507fffffffffffffffffffffffffffffffffffffffffffffffffffffffffffffffff821415610f0657610f05610f11565b5b600182019050919050565b7f4e487b7100000000000000000000000000000000000000000000000000000000600052601160045260246000fd5b7f4e487b7100000000000000000000000000000000000000000000000000000000600052602260045260246000fd5b7f4e487b7100000000000000000000000000000000000000000000000000000000600052603260045260246000fd5b7f4e487b7100000000000000000000000000000000000000000000000000000000600052604160045260246000fd5b600080fd5b600080fd5b600080fd5b600080fd5b6000601f19601f8301169050919050565b610ffb81610e19565b811461100657600080fd5b5056fea26469706673582212207407e2286ca004fb4362cf43027ed5f1b39ba9af41026bb8477ab19d1da9feb964736f6c63430008060033",
  "immutableReferences": {},
  "source": "// SPDX-License-Identifier: MIT\r\npragma solidity ^0.8.6;\r\n\r\ncontract TasksContract {\r\n    constructor() {\r\n        createTask(\"Test Title\", \"Test description\");\r\n    }\r\n\r\n    event TaskCreated(\r\n        uint256 id,\r\n        string title,\r\n        string description,\r\n        bool done,\r\n        uint256 createdAt\r\n    );\r\n\r\n    uint256 public taskCounter = 0;\r\n\r\n    struct Task {\r\n        uint256 id;\r\n        string title;\r\n        string description;\r\n        bool done;\r\n        uint256 createdAt;\r\n    }\r\n\r\n    mapping(uint256 => Task) public Tasks;\r\n\r\n    uint256[] public taskList;\r\n\r\n    function getTasks() external view returns (Task[] memory) {\r\n        Task[] memory _tasks = new Task[](taskList.length);\r\n        for (uint256 i = 0; i < taskList.length; i++) {\r\n            _tasks[i] = Task(\r\n                _tasks[taskList[i]].id,\r\n                _tasks[taskList[i]].title,\r\n                _tasks[taskList[i]].description,\r\n                _tasks[taskList[i]].done,\r\n                _tasks[taskList[i]].createdAt\r\n            );\r\n        }\r\n        return _tasks;\r\n    }\r\n\r\n    function createTask(string memory _title, string memory _description)\r\n        public\r\n    {\r\n        taskCounter++;\r\n        Tasks[taskCounter] = Task(\r\n            taskCounter,\r\n            _title,\r\n            _description,\r\n            false,\r\n            block.timestamp\r\n        );\r\n        emit TaskCreated(\r\n            taskCounter,\r\n            _title,\r\n            _description,\r\n            false,\r\n            block.timestamp\r\n        );\r\n    }\r\n\r\n    function deleteTask(uint256 _id) public {\r\n        delete Tasks[_id];\r\n    }\r\n\r\n    function modifyTask(uint256 _id) public {\r\n        Task memory _task = Tasks[_id];\r\n        _task.done = !_task.done;\r\n        Tasks[_id] = _task;\r\n        emit TaskCreated(\r\n            _task.id,\r\n            _task.title,\r\n            _task.description,\r\n            _task.done,\r\n            _task.createdAt\r\n        );\r\n    }\r\n}\r\n",
  "sourcePath": "C:\\SolidityTasks\\contracts\\TasksContract.sol",
  "compiler": {
    "name": "solc",
    "version": "0.8.6+commit.11564f7e.Emscripten.clang"
  },
  "schemaVersion": "3.4.3",
  "updatedAt": "2021-10-14T16:33:18.067Z",
  "networkType": "ethereum",
  "devdoc": {
    "kind": "dev",
    "methods": {},
    "version": 1
  },
  "userdoc": {
    "kind": "user",
    "methods": {},
    "version": 1
  }
}